{
    "_format": "hh-sol-artifact-1",
    "contractName": "ASP",
    "sourceName": "contracts/ASP.sol",
    "abi": [
        {
            "inputs": [
                {
                    "internalType": "address",
                    "name": "_hasher",
                    "type": "address"
                }
            ],
            "stateMutability": "nonpayable",
            "type": "constructor"
        },
        {
            "anonymous": false,
            "inputs": [
                {
                    "indexed": false,
                    "internalType": "uint256",
                    "name": "root",
                    "type": "uint256"
                },
                {
                    "indexed": false,
                    "internalType": "uint256[10]",
                    "name": "hashPairings",
                    "type": "uint256[10]"
                },
                {
                    "indexed": false,
                    "internalType": "uint8[10]",
                    "name": "pairDirection",
                    "type": "uint8[10]"
                }
            ],
            "name": "userAdded",
            "type": "event"
        },
        {
            "inputs": [],
            "name": "addUser",
            "outputs": [],
            "stateMutability": "nonpayable",
            "type": "function"
        },
        {
            "inputs": [],
            "name": "nextLeafIdx",
            "outputs": [
                {
                    "internalType": "uint256",
                    "name": "",
                    "type": "uint256"
                }
            ],
            "stateMutability": "view",
            "type": "function"
        },
        {
            "inputs": [
                {
                    "internalType": "uint256",
                    "name": "",
                    "type": "uint256"
                }
            ],
            "name": "roots",
            "outputs": [
                {
                    "internalType": "bool",
                    "name": "",
                    "type": "bool"
                }
            ],
            "stateMutability": "view",
            "type": "function"
        },
        {
            "inputs": [],
            "name": "treeLevel",
            "outputs": [
                {
                    "internalType": "uint8",
                    "name": "",
                    "type": "uint8"
                }
            ],
            "stateMutability": "view",
            "type": "function"
        }
    ],
    "bytecode": "0x6000805460ff1916600a90811782556001919091556101c06040527f33418cd1669b4e7f4bf473ec2db9a489b3d6f9f11b91d0b3b6004432ab53d60b60809081527f350ffb7c45ccf8940c163b192252495b614def57272b6f8d9a53a5b3e44ef8bd60a0527fc8acb7af851baf91a82b1ad46b01ac506ce80387170890dea377d21e8520258460c0527f5171d273154b2764aa5903210e16bd1899b18648d1358d41887a113227e9acc560e0527f986c06cb04d613f57cf7a1da410e0f22c794e1ec1ae125898cfc9662a5e5be59610100527f6eb9a05106eff3031621027680204b2e9326b0e5191bd62f3cd7bf7f6d94d027610120527fa1cbc8691493398c061f547b4882edbb6a38ce1730c8a2605e9d8138d4ad1226610140527f850aa72f3d8bc65181e9c29d76f7614e2f939ade9442abac29fc8a0329deeffd610160527fe9c6f678752dbfc89028bf8b9b1cce608b34b742b75fbae878ec2c6ae803dc1e610180527fa9e22c2e1f4531bc4389032bb472b97c25a7298d27ba4fefd75439a1be46f77f6101a05261019791600591906101e8565b503480156101a457600080fd5b506040516108e13803806108e18339810160408190526101c39161023b565b600480546001600160a01b0319166001600160a01b039290921691909117905561026b565b82600a8101928215610216579160200282015b828111156102165782518255916020019190600101906101fb565b50610222929150610226565b5090565b5b808211156102225760008155600101610227565b60006020828403121561024d57600080fd5b81516001600160a01b038116811461026457600080fd5b9392505050565b6106678061027a6000396000f3fe608060405234801561001057600080fd5b506004361061004c5760003560e01c8063455c928c1461005157806345e0523f1461005b578063b8e7956414610077578063c2b40ae414610096575b600080fd5b6100596100c9565b005b61006460015481565b6040519081526020015b60405180910390f35b6000546100849060ff1681565b60405160ff909116815260200161006e565b6100b96100a43660046103c9565b60026020526000908152604090205460ff1681565b604051901515815260200161006e565b60005433906100dc9060ff1660026104de565b6001541061011c5760405162461bcd60e51b81526020600482015260096024820152681d1c99594b599d5b1b60ba1b604482015260640160405180910390fd5b600061012661038c565b61012e61038c565b6001548460008061013d6103ab565b60005b60005460ff908116908216101561030d5761015c60028761050a565b6000036101db5784935060058160ff16600a811061017c5761017c61051e565b0154925060058160ff16600a81106101965761019661051e565b0154888260ff16600a81106101ad576101ad61051e565b602002015260008760ff8316600a81106101c9576101c961051e565b60ff9092166020929092020152610231565b60ff8116600081815260036020526040902054945085935084908990600a81106102075761020761051e565b602002015260018760ff8316600a81106102235761022361051e565b60ff90921660209290920201525b60ff81166000908152600360205260408120869055849083906020020152828260016020020181815250506000600460009054906101000a90046001600160a01b03166001600160a01b031663d622e5a4620249f0858e6040518463ffffffff1660e01b81526004016102a5929190610534565b6020604051808303818786fa1580156102c2573d6000803e3d6000fd5b50505050506040513d601f19601f820116820180604052508101906102e7919061056c565b95508590506102f7600288610585565b965050808061030590610599565b915050610140565b506000848152600260205260408120805460ff1916600190811790915580549599508995909182916103409083906105b8565b90915550506040517f24912d67c30845347b4a932ac74d20147045310108cc81c73271fe1a78b3b15c90610379908a908a908a906105cb565b60405180910390a1505050505050505050565b604051806101400160405280600a906020820280368337509192915050565b60405180604001604052806002906020820280368337509192915050565b6000602082840312156103db57600080fd5b5035919050565b634e487b7160e01b600052601160045260246000fd5b600181815b80851115610433578160001904821115610419576104196103e2565b8085161561042657918102915b93841c93908002906103fd565b509250929050565b60008261044a575060016104d8565b81610457575060006104d8565b816001811461046d576002811461047757610493565b60019150506104d8565b60ff841115610488576104886103e2565b50506001821b6104d8565b5060208310610133831016604e8410600b84101617156104b6575081810a6104d8565b6104c083836103f8565b80600019048211156104d4576104d46103e2565b0290505b92915050565b60006104ed60ff84168361043b565b9392505050565b634e487b7160e01b600052601260045260246000fd5b600082610519576105196104f4565b500690565b634e487b7160e01b600052603260045260246000fd5b60608101818460005b600281101561055c57815183526020928301929091019060010161053d565b5050508260408301529392505050565b60006020828403121561057e57600080fd5b5051919050565b600082610594576105946104f4565b500490565b600060ff821660ff81036105af576105af6103e2565b60010192915050565b808201808211156104d8576104d86103e2565b8381526102a0810160208083018560005b600a8110156105f9578151835291830191908301906001016105dc565b50505061016083018460005b600a81101561062557815160ff1683529183019190830190600101610605565b5050505094935050505056fea2646970667358221220112e27539d4d9afbda342b829901dc91b397e44d9f0c905d69f4719f696af1fd64736f6c63430008110033",
    "linkReferences": {},
    "deployedLinkReferences": {}
}