{
  "_format": "hh-sol-artifact-1",
  "contractName": "Tornado",
  "sourceName": "contracts/Tornado.sol",
  "abi": [
    {
      "inputs": [
        {
          "internalType": "address",
          "name": "_hasher",
          "type": "address"
        },
        {
          "internalType": "address",
          "name": "_verifier",
          "type": "address"
        },
        {
          "internalType": "address",
          "name": "_asp",
          "type": "address"
        }
      ],
      "stateMutability": "nonpayable",
      "type": "constructor"
    },
    {
      "anonymous": false,
      "inputs": [
        {
          "indexed": false,
          "internalType": "uint256",
          "name": "root",
          "type": "uint256"
        },
        {
          "indexed": false,
          "internalType": "uint256[10]",
          "name": "hashPairings",
          "type": "uint256[10]"
        },
        {
          "indexed": false,
          "internalType": "uint8[10]",
          "name": "pairDirection",
          "type": "uint8[10]"
        }
      ],
      "name": "Deposit",
      "type": "event"
    },
    {
      "anonymous": false,
      "inputs": [
        {
          "indexed": false,
          "internalType": "address",
          "name": "to",
          "type": "address"
        },
        {
          "indexed": false,
          "internalType": "uint256",
          "name": "nullifierHash",
          "type": "uint256"
        }
      ],
      "name": "Withdrawal",
      "type": "event"
    },
    {
      "inputs": [
        {
          "internalType": "uint256",
          "name": "",
          "type": "uint256"
        }
      ],
      "name": "commitments",
      "outputs": [
        {
          "internalType": "bool",
          "name": "",
          "type": "bool"
        }
      ],
      "stateMutability": "view",
      "type": "function"
    },
    {
      "inputs": [],
      "name": "denomination",
      "outputs": [
        {
          "internalType": "uint256",
          "name": "",
          "type": "uint256"
        }
      ],
      "stateMutability": "view",
      "type": "function"
    },
    {
      "inputs": [
        {
          "internalType": "uint256",
          "name": "_commitment",
          "type": "uint256"
        }
      ],
      "name": "deposit",
      "outputs": [],
      "stateMutability": "payable",
      "type": "function"
    },
    {
      "inputs": [],
      "name": "nextLeafIdx",
      "outputs": [
        {
          "internalType": "uint256",
          "name": "",
          "type": "uint256"
        }
      ],
      "stateMutability": "view",
      "type": "function"
    },
    {
      "inputs": [
        {
          "internalType": "uint256",
          "name": "",
          "type": "uint256"
        }
      ],
      "name": "nullifierHashes",
      "outputs": [
        {
          "internalType": "bool",
          "name": "",
          "type": "bool"
        }
      ],
      "stateMutability": "view",
      "type": "function"
    },
    {
      "inputs": [
        {
          "internalType": "uint256",
          "name": "",
          "type": "uint256"
        }
      ],
      "name": "roots",
      "outputs": [
        {
          "internalType": "bool",
          "name": "",
          "type": "bool"
        }
      ],
      "stateMutability": "view",
      "type": "function"
    },
    {
      "inputs": [],
      "name": "treeLevel",
      "outputs": [
        {
          "internalType": "uint8",
          "name": "",
          "type": "uint8"
        }
      ],
      "stateMutability": "view",
      "type": "function"
    },
    {
      "inputs": [
        {
          "internalType": "uint256[2]",
          "name": "a",
          "type": "uint256[2]"
        },
        {
          "internalType": "uint256[2][2]",
          "name": "b",
          "type": "uint256[2][2]"
        },
        {
          "internalType": "uint256[2]",
          "name": "c",
          "type": "uint256[2]"
        },
        {
          "internalType": "uint256[3]",
          "name": "input",
          "type": "uint256[3]"
        }
      ],
      "name": "withdraw",
      "outputs": [],
      "stateMutability": "payable",
      "type": "function"
    }
  ],
  "bytecode": "0x6003805460ff60a01b1916600560a11b179055662386f26fc1000060045560006005556101c06040527f33418cd1669b4e7f4bf473ec2db9a489b3d6f9f11b91d0b3b6004432ab53d60b60809081527f350ffb7c45ccf8940c163b192252495b614def57272b6f8d9a53a5b3e44ef8bd60a0527fc8acb7af851baf91a82b1ad46b01ac506ce80387170890dea377d21e8520258460c0527f5171d273154b2764aa5903210e16bd1899b18648d1358d41887a113227e9acc560e0527f986c06cb04d613f57cf7a1da410e0f22c794e1ec1ae125898cfc9662a5e5be59610100527f6eb9a05106eff3031621027680204b2e9326b0e5191bd62f3cd7bf7f6d94d027610120527fa1cbc8691493398c061f547b4882edbb6a38ce1730c8a2605e9d8138d4ad1226610140527f850aa72f3d8bc65181e9c29d76f7614e2f939ade9442abac29fc8a0329deeffd610160527fe9c6f678752dbfc89028bf8b9b1cce608b34b742b75fbae878ec2c6ae803dc1e610180527fa9e22c2e1f4531bc4389032bb472b97c25a7298d27ba4fefd75439a1be46f77f6101a052620001a790600a90816200021f565b50348015620001b557600080fd5b50604051620010e4380380620010e4833981016040819052620001d89162000296565b60016000819055600280546001600160a01b039586166001600160a01b031991821617909155815493851693811693909317905560038054919093169116179055620002e0565b82600a810192821562000250579160200282015b828111156200025057825182559160200191906001019062000233565b506200025e92915062000262565b5090565b5b808211156200025e576000815560010162000263565b80516001600160a01b03811681146200029157600080fd5b919050565b600080600060608486031215620002ac57600080fd5b620002b78462000279565b9250620002c76020850162000279565b9150620002d76040850162000279565b90509250925092565b610df480620002f06000396000f3fe60806040526004361061007b5760003560e01c80638bca6d161161004e5780638bca6d161461012e578063b6b55f2514610144578063b8e7956414610157578063c2b40ae41461018a57600080fd5b80631f79a1e9146100805780632d2fbf30146100c557806345e0523f146100da57806349ce8997146100fe575b600080fd5b34801561008c57600080fd5b506100b061009b3660046108ea565b60086020526000908152604090205460ff1681565b60405190151581526020015b60405180910390f35b6100d86100d33660046109b5565b6101ba565b005b3480156100e657600080fd5b506100f060055481565b6040519081526020016100bc565b34801561010a57600080fd5b506100b06101193660046108ea565b60096020526000908152604090205460ff1681565b34801561013a57600080fd5b506100f060045481565b6100d86101523660046108ea565b6104c3565b34801561016357600080fd5b5060035461017890600160a01b900460ff1681565b60405160ff90911681526020016100bc565b34801561019657600080fd5b506100b06101a53660046108ea565b60066020526000908152604090205460ff1681565b6101c2610854565b80516020808301516040808501516000838152600890945292205490919060ff16156102255760405162461bcd60e51b815260206004820152600d60248201526c185b1c9958591e4b5cdc195b9d609a1b60448201526064015b60405180910390fd5b60008381526006602052604090205460ff1661026e5760405162461bcd60e51b81526020600482015260086024820152671b9bdd0b5c9bdbdd60c21b604482015260640161021c565b60015460408051608081018252858152602081018590528082018490523360608201819052915191926000926001600160a01b03909116916102b9918c918c918c9190602401610acc565b60408051601f198184030181529181526020820180516001600160e01b0316635fe8c13b60e01b179052516102ee9190610b73565b6000604051808303816000865af19150503d806000811461032b576040519150601f19603f3d011682016040523d82523d6000602084013e610330565b606091505b50509050806103715760405162461bcd60e51b815260206004820152600d60248201526c34b73b30b634b216b83937b7b360991b604482015260640161021c565b600084815260086020526040808220805460ff19166001179055600454905133929183918381818185875af1925050503d80600081146103cd576040519150601f19603f3d011682016040523d82523d6000602084013e6103d2565b606091505b50509050806104145760405162461bcd60e51b815260206004820152600e60248201526d1c185e5b595b9d0b59985a5b195960921b604482015260640161021c565b600354604051634e2d29b360e11b8152600481018790526001600160a01b0390911690639c5a536690602401600060405180830381600087803b15801561045a57600080fd5b505af115801561046e573d6000803e3d6000fd5b505060408051338152602081018a90527f7fcf532c15f0a6db0bd6d0e038bea71d30d808c7d98cb3bf7268a95bf5081b65935001905060405180910390a1505050505050506104bd6001600055565b50505050565b6104cb610854565b600454341461050f5760405162461bcd60e51b815260206004820152601060248201526f1a5b98dbdc9c9958dd0b585b5bdd5b9d60821b604482015260640161021c565b60008181526009602052604090205460ff16156105645760405162461bcd60e51b8152602060048201526013602482015272195e1a5cdd1a5b99cb58dbdb5b5a5d1b595b9d606a1b604482015260640161021c565b60035461057c90600160a01b900460ff166002610c9e565b600554106105b85760405162461bcd60e51b81526020600482015260096024820152681d1c99594b599d5b1b60ba1b604482015260640161021c565b60006105c26108ad565b6105ca6108ad565b600554846000806105d96108cc565b60005b60035460ff600160a01b909104811690821610156107b0576105ff600287610cca565b60000361067e57849350600a8160ff16600a811061061f5761061f610a93565b01549250600a8160ff16600a811061063957610639610a93565b0154888260ff16600a811061065057610650610a93565b602002015260008760ff8316600a811061066c5761066c610a93565b60ff90921660209290920201526106d4565b60ff8116600081815260076020526040902054945085935084908990600a81106106aa576106aa610a93565b602002015260018760ff8316600a81106106c6576106c6610a93565b60ff90921660209290920201525b60ff81166000908152600760205260408120869055849083906020020152828260016020020181815250506000600260009054906101000a90046001600160a01b03166001600160a01b031663d622e5a4620249f0858e6040518463ffffffff1660e01b8152600401610748929190610cde565b6020604051808303818786fa158015610765573d6000803e3d6000fd5b50505050506040513d601f19601f8201168201806040525081019061078a9190610cf9565b955085905061079a600288610d12565b96505080806107a890610d26565b9150506105dc565b506000848152600660205260408120805460ff1916600190811790915560058054969a508a96919290916107e5908490610d45565b909155505060008981526009602052604090819020805460ff19166001179055517fe6ab8667cb740d6c65a4ad321c031eb42f6c5085d5753238d1b2e1e370c1348390610837908a908a908a90610d58565b60405180910390a150505050505050506108516001600055565b50565b6002600054036108a65760405162461bcd60e51b815260206004820152601f60248201527f5265656e7472616e637947756172643a207265656e7472616e742063616c6c00604482015260640161021c565b6002600055565b604051806101400160405280600a906020820280368337509192915050565b60405180604001604052806002906020820280368337509192915050565b6000602082840312156108fc57600080fd5b5035919050565b634e487b7160e01b600052604160045260246000fd5b6040805190810167ffffffffffffffff8111828210171561093c5761093c610903565b60405290565b6040516060810167ffffffffffffffff8111828210171561093c5761093c610903565b600082601f83011261097657600080fd5b61097e610919565b80604084018581111561099057600080fd5b845b818110156109aa578035845260209384019301610992565b509095945050505050565b6000806000806101608086880312156109cd57600080fd5b6109d78787610965565b9450604087605f8801126109ea57600080fd5b6109f2610919565b8060c089018a811115610a0457600080fd5b838a015b81811015610a2957610a1a8c82610965565b84526020909301928401610a08565b50819750610a378b82610965565b9650505050508661011f870112610a4d57600080fd5b610a55610942565b908601908088831115610a6757600080fd5b61010088015b83811015610a85578035835260209283019201610a6d565b509598949750929550505050565b634e487b7160e01b600052603260045260246000fd5b8060005b60028110156104bd578151845260209384019390910190600101610aad565b6101808101610adb8287610aa9565b60408083018660005b6002808210610af35750610b2e565b82518460005b83811015610b17578251825260209283019290910190600101610af9565b505050928401925060209190910190600101610ae4565b50505050610b3f60c0830185610aa9565b61010082018360005b6004811015610b67578151835260209283019290910190600101610b48565b50505095945050505050565b6000825160005b81811015610b945760208186018101518583015201610b7a565b506000920191825250919050565b634e487b7160e01b600052601160045260246000fd5b600181815b80851115610bf3578160001904821115610bd957610bd9610ba2565b80851615610be657918102915b93841c9390800290610bbd565b509250929050565b600082610c0a57506001610c98565b81610c1757506000610c98565b8160018114610c2d5760028114610c3757610c53565b6001915050610c98565b60ff841115610c4857610c48610ba2565b50506001821b610c98565b5060208310610133831016604e8410600b8410161715610c76575081810a610c98565b610c808383610bb8565b8060001904821115610c9457610c94610ba2565b0290505b92915050565b6000610cad60ff841683610bfb565b9392505050565b634e487b7160e01b600052601260045260246000fd5b600082610cd957610cd9610cb4565b500690565b60608101610cec8285610aa9565b8260408301529392505050565b600060208284031215610d0b57600080fd5b5051919050565b600082610d2157610d21610cb4565b500490565b600060ff821660ff8103610d3c57610d3c610ba2565b60010192915050565b80820180821115610c9857610c98610ba2565b8381526102a0810160208083018560005b600a811015610d8657815183529183019190830190600101610d69565b50505061016083018460005b600a811015610db257815160ff1683529183019190830190600101610d92565b5050505094935050505056fea2646970667358221220f094556b71f47d7f7ec2813bfe9c47732efd773bd40006a3d72beae53d6300e764736f6c63430008110033",
  "linkReferences": {},
  "deployedLinkReferences": {}
}