{
  "_format": "hh-sol-artifact-1",
  "contractName": "Tornado",
  "sourceName": "contracts/Tornado.sol",
  "abi": [
    {
      "inputs": [
        {
          "internalType": "address",
          "name": "_hasher",
          "type": "address"
        },
        {
          "internalType": "address",
          "name": "_verifier",
          "type": "address"
        }
      ],
      "stateMutability": "nonpayable",
      "type": "constructor"
    },
    {
      "anonymous": false,
      "inputs": [
        {
          "indexed": false,
          "internalType": "uint256",
          "name": "root",
          "type": "uint256"
        },
        {
          "indexed": false,
          "internalType": "uint256[10]",
          "name": "hashPairings",
          "type": "uint256[10]"
        },
        {
          "indexed": false,
          "internalType": "uint8[10]",
          "name": "pairDirection",
          "type": "uint8[10]"
        }
      ],
      "name": "Deposit",
      "type": "event"
    },
    {
      "anonymous": false,
      "inputs": [
        {
          "indexed": false,
          "internalType": "address",
          "name": "to",
          "type": "address"
        },
        {
          "indexed": false,
          "internalType": "uint256",
          "name": "nullifierHash",
          "type": "uint256"
        }
      ],
      "name": "Withdrawal",
      "type": "event"
    },
    {
      "inputs": [
        {
          "internalType": "uint256",
          "name": "",
          "type": "uint256"
        }
      ],
      "name": "commitments",
      "outputs": [
        {
          "internalType": "bool",
          "name": "",
          "type": "bool"
        }
      ],
      "stateMutability": "view",
      "type": "function"
    },
    {
      "inputs": [],
      "name": "denomination",
      "outputs": [
        {
          "internalType": "uint256",
          "name": "",
          "type": "uint256"
        }
      ],
      "stateMutability": "view",
      "type": "function"
    },
    {
      "inputs": [
        {
          "internalType": "uint256",
          "name": "_commitment",
          "type": "uint256"
        }
      ],
      "name": "deposit",
      "outputs": [],
      "stateMutability": "payable",
      "type": "function"
    },
    {
      "inputs": [],
      "name": "nextLeafIdx",
      "outputs": [
        {
          "internalType": "uint256",
          "name": "",
          "type": "uint256"
        }
      ],
      "stateMutability": "view",
      "type": "function"
    },
    {
      "inputs": [
        {
          "internalType": "uint256",
          "name": "",
          "type": "uint256"
        }
      ],
      "name": "nullifierHashes",
      "outputs": [
        {
          "internalType": "bool",
          "name": "",
          "type": "bool"
        }
      ],
      "stateMutability": "view",
      "type": "function"
    },
    {
      "inputs": [
        {
          "internalType": "uint256",
          "name": "",
          "type": "uint256"
        }
      ],
      "name": "roots",
      "outputs": [
        {
          "internalType": "bool",
          "name": "",
          "type": "bool"
        }
      ],
      "stateMutability": "view",
      "type": "function"
    },
    {
      "inputs": [],
      "name": "treeLevel",
      "outputs": [
        {
          "internalType": "uint8",
          "name": "",
          "type": "uint8"
        }
      ],
      "stateMutability": "view",
      "type": "function"
    },
    {
      "inputs": [
        {
          "internalType": "uint256[2]",
          "name": "a",
          "type": "uint256[2]"
        },
        {
          "internalType": "uint256[2][2]",
          "name": "b",
          "type": "uint256[2][2]"
        },
        {
          "internalType": "uint256[2]",
          "name": "c",
          "type": "uint256[2]"
        },
        {
          "internalType": "uint256[3]",
          "name": "input",
          "type": "uint256[3]"
        }
      ],
      "name": "withdraw",
      "outputs": [],
      "stateMutability": "payable",
      "type": "function"
    }
  ],
  "bytecode": "0x6002805460ff60a01b1916600560a11b179055662386f26fc1000060035560006004556101c06040527f33418cd1669b4e7f4bf473ec2db9a489b3d6f9f11b91d0b3b6004432ab53d60b60809081527f350ffb7c45ccf8940c163b192252495b614def57272b6f8d9a53a5b3e44ef8bd60a0527fc8acb7af851baf91a82b1ad46b01ac506ce80387170890dea377d21e8520258460c0527f5171d273154b2764aa5903210e16bd1899b18648d1358d41887a113227e9acc560e0527f986c06cb04d613f57cf7a1da410e0f22c794e1ec1ae125898cfc9662a5e5be59610100527f6eb9a05106eff3031621027680204b2e9326b0e5191bd62f3cd7bf7f6d94d027610120527fa1cbc8691493398c061f547b4882edbb6a38ce1730c8a2605e9d8138d4ad1226610140527f850aa72f3d8bc65181e9c29d76f7614e2f939ade9442abac29fc8a0329deeffd610160527fe9c6f678752dbfc89028bf8b9b1cce608b34b742b75fbae878ec2c6ae803dc1e610180527fa9e22c2e1f4531bc4389032bb472b97c25a7298d27ba4fefd75439a1be46f77f6101a052620001a890600990600a6200020f565b50348015620001b657600080fd5b506040516200106e3803806200106e833981016040819052620001d99162000286565b60016000819055600280546001600160a01b03199081166001600160a01b039586161790915581541691909216179055620002be565b82600a810192821562000240579160200282015b828111156200024057825182559160200191906001019062000223565b506200024e92915062000252565b5090565b5b808211156200024e576000815560010162000253565b80516001600160a01b03811681146200028157600080fd5b919050565b600080604083850312156200029a57600080fd5b620002a58362000269565b9150620002b56020840162000269565b90509250929050565b610da080620002ce6000396000f3fe60806040526004361061007b5760003560e01c80638bca6d161161004e5780638bca6d161461012e578063b6b55f2514610144578063b8e7956414610157578063c2b40ae41461018a57600080fd5b80631f79a1e9146100805780632d2fbf30146100c557806345e0523f146100da57806349ce8997146100fe575b600080fd5b34801561008c57600080fd5b506100b061009b366004610896565b60076020526000908152604090205460ff1681565b60405190151581526020015b60405180910390f35b6100d86100d3366004610961565b6101ba565b005b3480156100e657600080fd5b506100f060045481565b6040519081526020016100bc565b34801561010a57600080fd5b506100b0610119366004610896565b60086020526000908152604090205460ff1681565b34801561013a57600080fd5b506100f060035481565b6100d8610152366004610896565b61046b565b34801561016357600080fd5b5060025461017890600160a01b900460ff1681565b60405160ff90911681526020016100bc565b34801561019657600080fd5b506100b06101a5366004610896565b60056020526000908152604090205460ff1681565b6101c2610800565b80516020808301516040808501516000838152600790945292205490919060ff16156102255760405162461bcd60e51b815260206004820152600d60248201526c185b1c9958591e4b5cdc195b9d609a1b60448201526064015b60405180910390fd5b60008381526005602052604090205460ff1661026e5760405162461bcd60e51b81526020600482015260086024820152671b9bdd0b5c9bdbdd60c21b604482015260640161021c565b6001546040805160a08101825285815260208101859052808201849052336060820181905260808201819052915191926000926001600160a01b03909116916102c0918c918c918c9190602401610a78565b60408051601f198184030181529181526020820180516001600160e01b03166334baeab960e01b179052516102f59190610b1f565b6000604051808303816000865af19150503d8060008114610332576040519150601f19603f3d011682016040523d82523d6000602084013e610337565b606091505b50509050806103785760405162461bcd60e51b815260206004820152600d60248201526c34b73b30b634b216b83937b7b360991b604482015260640161021c565b600084815260076020526040808220805460ff19166001179055600354905133929183918381818185875af1925050503d80600081146103d4576040519150601f19603f3d011682016040523d82523d6000602084013e6103d9565b606091505b505090508061041b5760405162461bcd60e51b815260206004820152600e60248201526d1c185e5b595b9d0b59985a5b195960921b604482015260640161021c565b60408051338152602081018890527f7fcf532c15f0a6db0bd6d0e038bea71d30d808c7d98cb3bf7268a95bf5081b65910160405180910390a1505050505050506104656001600055565b50505050565b610473610800565b60035434146104b75760405162461bcd60e51b815260206004820152601060248201526f1a5b98dbdc9c9958dd0b585b5bdd5b9d60821b604482015260640161021c565b60008181526008602052604090205460ff161561050c5760405162461bcd60e51b8152602060048201526013602482015272195e1a5cdd1a5b99cb58dbdb5b5a5d1b595b9d606a1b604482015260640161021c565b600260149054906101000a900460ff1660026105289190610c4a565b600454106105645760405162461bcd60e51b81526020600482015260096024820152681d1c99594b599d5b1b60ba1b604482015260640161021c565b600061056e610859565b610576610859565b60045484600080610585610878565b60005b60025460ff600160a01b9091048116908216101561075c576105ab600287610c76565b60000361062a5784935060098160ff16600a81106105cb576105cb610a3f565b0154925060098160ff16600a81106105e5576105e5610a3f565b0154888260ff16600a81106105fc576105fc610a3f565b602002015260008760ff8316600a811061061857610618610a3f565b60ff9092166020929092020152610680565b60ff8116600081815260066020526040902054945085935084908990600a811061065657610656610a3f565b602002015260018760ff8316600a811061067257610672610a3f565b60ff90921660209290920201525b60ff81166000908152600660205260408120869055849083906020020152828260016020020181815250506000600260009054906101000a90046001600160a01b03166001600160a01b031663d622e5a4620249f0858e6040518463ffffffff1660e01b81526004016106f4929190610c8a565b6020604051808303818786fa158015610711573d6000803e3d6000fd5b50505050506040513d601f19601f820116820180604052508101906107369190610ca5565b9550859050610746600288610cbe565b965050808061075490610cd2565b915050610588565b506000848152600560205260408120805460ff1916600190811790915560048054969a508a9691929091610791908490610cf1565b909155505060008981526008602052604090819020805460ff19166001179055517fe6ab8667cb740d6c65a4ad321c031eb42f6c5085d5753238d1b2e1e370c13483906107e3908a908a908a90610d04565b60405180910390a150505050505050506107fd6001600055565b50565b6002600054036108525760405162461bcd60e51b815260206004820152601f60248201527f5265656e7472616e637947756172643a207265656e7472616e742063616c6c00604482015260640161021c565b6002600055565b604051806101400160405280600a906020820280368337509192915050565b60405180604001604052806002906020820280368337509192915050565b6000602082840312156108a857600080fd5b5035919050565b634e487b7160e01b600052604160045260246000fd5b6040805190810167ffffffffffffffff811182821017156108e8576108e86108af565b60405290565b6040516060810167ffffffffffffffff811182821017156108e8576108e86108af565b600082601f83011261092257600080fd5b61092a6108c5565b80604084018581111561093c57600080fd5b845b8181101561095657803584526020938401930161093e565b509095945050505050565b60008060008061016080868803121561097957600080fd5b6109838787610911565b9450604087605f88011261099657600080fd5b61099e6108c5565b8060c089018a8111156109b057600080fd5b838a015b818110156109d5576109c68c82610911565b845260209093019284016109b4565b508197506109e38b82610911565b9650505050508661011f8701126109f957600080fd5b610a016108ee565b908601908088831115610a1357600080fd5b61010088015b83811015610a31578035835260209283019201610a19565b509598949750929550505050565b634e487b7160e01b600052603260045260246000fd5b8060005b6002811015610465578151845260209384019390910190600101610a59565b6101a08101610a878287610a55565b60408083018660005b6002808210610a9f5750610ada565b82518460005b83811015610ac3578251825260209283019290910190600101610aa5565b505050928401925060209190910190600101610a90565b50505050610aeb60c0830185610a55565b61010082018360005b6005811015610b13578151835260209283019290910190600101610af4565b50505095945050505050565b6000825160005b81811015610b405760208186018101518583015201610b26565b506000920191825250919050565b634e487b7160e01b600052601160045260246000fd5b600181815b80851115610b9f578160001904821115610b8557610b85610b4e565b80851615610b9257918102915b93841c9390800290610b69565b509250929050565b600082610bb657506001610c44565b81610bc357506000610c44565b8160018114610bd95760028114610be357610bff565b6001915050610c44565b60ff841115610bf457610bf4610b4e565b50506001821b610c44565b5060208310610133831016604e8410600b8410161715610c22575081810a610c44565b610c2c8383610b64565b8060001904821115610c4057610c40610b4e565b0290505b92915050565b6000610c5960ff841683610ba7565b9392505050565b634e487b7160e01b600052601260045260246000fd5b600082610c8557610c85610c60565b500690565b60608101610c988285610a55565b8260408301529392505050565b600060208284031215610cb757600080fd5b5051919050565b600082610ccd57610ccd610c60565b500490565b600060ff821660ff8103610ce857610ce8610b4e565b60010192915050565b80820180821115610c4457610c44610b4e565b8381526102a0810160208083018560005b600a811015610d3257815183529183019190830190600101610d15565b50505061016083018460005b600a811015610d5e57815160ff1683529183019190830190600101610d3e565b5050505094935050505056fea26469706673582212204593191e5dba1fc774e4afbc2b5b3597458011022f5ef3ccb6c9a9e6e874d25f64736f6c63430008110033",
  "linkReferences": {},
  "deployedLinkReferences": {}
}